:020000042000DA
:100000007370043073504030971100709381818574
:1000100017010170130101FF970200609382421CD7
:100020007390523073F05130170500001305850BA3
:1000300097050060938505FD6300B50217260060F3
:100040001306061563FAC5008322050023A0550098
:1000500011059105E3EAC5FE1725000013054521AA
:1000600097050070938505FA17260070130606EBB6
:1000700063FAC5008322050023A0550011059105F0
:10008000E3EAC5FE17250070130545E997250070C2
:10009000938545FC6377B500232005001105E36DCA
:1000A000B5FE97000060E780403F1715006013051C
:1000B00005C697100060E780E0C497100060E780F5
:1000C00080C897000060E780C071014581459710A6
:1000D0000060E780C08597100060E780608201A023
:1000E000011122CE00102326A4FE9727001093872B
:1000F000E703254798C3FD573E857244056182801A
:10010000011122CE00102326A4FE2324B4FE0327CF
:10011000C4FE85476307F7000327C4FE89476318B9
:10012000F700832784FE0967D8C3814701A8972772
:1001300000109387A7FF254798C3FD573E8572445B
:1001400005618280011122CE00102326A4FE85477E
:100150003E85724405618280011122CE0010232663
:10016000A4FE2324B4FE2322C4FE81473E857244AC
:1001700005618280797106D622D40018232EA4FC52
:10018000232CB4FC232AC4FC8327C4FD99C3FD5748
:1001900039A8832784FD2326F4FE37350110492C26
:1001A000AA873E878327C4FE2380E70085473E85D4
:1001B000B250225445618280011122CE00102326C4
:1001C000A4FE970700109387E7F798438327C4FEA0
:1001D0003E97972700109387E7F56360F70297072C
:1001E0000010938727F698438327C4FE3E9797F71E
:1001F00000109387276F63F4E700FD5705A8970762
:100200000010938727F498438327C4FE3E979707EF
:100210000010938727F398C397070010938787F2FE
:1002200098438327C4FEB307F040BA973E857244D3
:1002300005618280797106D622D40018232EA4FC91
:10024000232CB4FC232AC4FC0325C4FDEF00306337
:10025000AA8799E3FD57B1A8832784FD2324F4FEE0
:10026000232604FE3DA8032784FE8327C4FEBA97F5
:1002700003C70700A9476316F700B54537350110D6
:10028000B522032784FE8327C4FEBA9783C70700DD
:10029000BE8537350110992A8327C4FE850723269A
:1002A000F4FE0327C4FE832744FDE36EF7FA832799
:1002B00044FD3E85B2502254456182805D7106C086
:1002C00012C216C41AC61EC82ACA2ECC32CE36D0C6
:1002D0003AD23ED442DC46DEF2C0F6C2FAC4FEC6D2
:1002E000F322103416D6F322203416D8F32200302D
:1002F00016DA732520348A85DD2EB25273901234BB
:10030000C25273902234D252739002308240124211
:10031000A2423243C2435245E245724682561257C8
:10032000A2576258F258064E964E264FB64F61615C
:1003300073002030011122CE00102326A4FE2324B6
:10034000B4FE8327C4FE93B7170093F7F70F99C342
:10035000FD5719A88327C4FED84F832784FE5D8FDD
:100360008327C4FED8CF81473E85724405618280D1
:10037000797122D60018232EA4FC232CB4FC8327E9
:10038000C4FD93B7170093F7F70F99C3FD5799A8CA
:1003900097070010938747DB9843832784FDB35763
:1003A000F702FD172326F4FE8327C4FD1307000878
:1003B000D8C78327C4FEA18313F7F70F8327C4FD93
:1003C000D8C38327C4FE13F7F70F8327C4FD98C350
:1003D0008327C4FD1307600C98C78327C4FD0D470E
:1003E000D8C781473E85325445618280011122CEB3
:1003F00000102326A4FEAE87A305F4FE8327C4FEC7
:1004000093B7170093F7F70F99C3FD5731A8010071
:100410008327C4FEDC4B93F70702FDDB0347B4FEE2
:100420008327C4FE98C381473E857244056182805C
:10043000797122D60018232EA4FC8327C4FD93B71C
:10044000170093F7F70F81C79307F00F05A001007E
:100450008327C4FDDC4B858BE5DF8327C4FD9C43EC
:100460002326F4FE8327C4FE93F7F70F3E8532540C
:1004700045618280411122C60008A1673E85324451
:1004800041018280397106DE22DC26DA80002326D3
:10049000A4FCCD372326A4FE37070002B167BA9724
:1004A00003A787FF83A7C7FF2324E4FE37070002C3
:1004B000B167BA9703A787FF83A7C7FF2322E4FE8C
:1004C000F32700B0BE84A6872320F4FE032744FE52
:1004D000832784FEE30CF7FC37070002B167BA9765
:1004E00003A787FF83A7C7FF832744FEB307F7400F
:1004F000232EF4FCF32700B0BE842687832704FE56
:10050000B307F740232CF4FC0327C4FD8327C4FC66
:10051000E364F7FC032784FD8327C4FD3357F70208
:100520008327C4FE3307F702832684FD8327C4FD97
:10053000B3F6F6028327C4FEB386F6028327C4FD12
:10054000B3D7F602BA973E85F2506254D254216175
:100550008280011106CE22CC0010054525371305F7
:1005600040060D372326A4FE8327C4FE3E85F240B5
:10057000624405618280411122C60008970700107D
:10058000938787BC37B7C4041307074098C301009B
:10059000324441018280011106CE22CC0010232674
:1005A000A4FE2324B4FE13850181EF00D02C832503
:1005B000C4FE13854182EF00D01AF3271034BE80A9
:1005C0008687BE8513854183EF00B019F327303449
:1005D000BE808687BE8513854184EF00901801A0F8
:1005E000011106CE22CC00102326A4FE2324B4FE43
:1005F00013854185EF0030288325C4FE1385418291
:10060000EF003016F3271034BE808687BE85138531
:100610004183EF001015F3273034BE808687BE85F6
:1006200013854184EF00F0130100F240624405613C
:100630008280011122CE0010232604FE1DA0170780
:100640000000130787F5972600109386E69B832703
:10065000C4FE8A07B69798C38327C4FE850723265E
:10066000F4FE0327C4FEA947E3DBE7FC0100010019
:10067000724405618280011122CE0010232604FEFF
:100680001DA0170700001307E7F5972600109386B3
:10069000669A8327C4FE8A07B69798C38327C4FE49
:1006A00085072326F4FE0327C4FEC147E3DBE7FCEE
:1006B000232604FE1DA0170700001307A7F29726A4
:1006C00000109386669B8327C4FE8A07B69798C35B
:1006D0008327C4FE85072326F4FE0327C4FEA5470F
:1006E000E3DBE7FC0100010072440561828039719F
:1006F00006DE22DC26DA80002326A4FC2324B4FCB8
:100700008327C4FC63D0070E232604FE0327C4FC02
:100710008567FD17F98F2324F4FE032784FEAD4778
:10072000631BF708F32740F1BE84A6872322F4FE5B
:10073000832744FE1397C700B707200C9107BA9789
:100740002320F4FE832704FE9C432324F4FE032786
:1007500084FEC14763E6E708172700101307878D5B
:10076000832784FE8A07BA979C432326F4FE8327B7
:10077000C4FE81CB8327C4FE832584FC0325C4FCEF
:100780008297832784FE232EF4FCF32740F1BE8456
:10079000A687232CF4FC832784FD1397C700B70793
:1007A000200C9107BA97232AF4FC832744FD0327E2
:1007B000C4FD98C335A0172700101307E78B8327C4
:1007C00084FE8A07BA979C432326F4FE8327C4FE3F
:1007D00081CB8327C4FE832584FC0325C4FC829738
:1007E000814739A0832584FC0325C4FC0128AA87FE
:1007F0003E85F2506254D25421618280797106D6CE
:1008000022D40018232EA4FC232CB4FC0327C4FDFF
:100810008567FD17F98F2324F4FE032784FEA9477B
:1008200063EEE700171700101307077E832784FE87
:100830008A07BA979C432326F4FE39A09707000045
:100840009387A7D52326F4FE8327C4FE81CB832775
:10085000C4FE832584FD0325C4FD829781473E8520
:10086000B250225445618280011106CE22CC001084
:10087000938781862322F4FE938741872324F4FE05
:100880009387C1872326F4FE138601889385C18848
:1008900013858189F925832784FEBE851385018C04
:1008A000C925970700109387278A9C43BE85138527
:1008B000418D452D0100F24062440561828039710D
:1008C00006DE22DC26DA800069312A8797070010CD
:1008D0009387878798C3B705030037250110993C94
:1008E000F16793850720373501105934B53F9133AF
:1008F0005933C5472326F4FE232404FE61A8832729
:1009000084FE2322F4FEF32740F1BE84A687232031
:10091000F4FE832704FE13977700832744FE958314
:100920008A073E97B727000CBA97232EF4FC83273B
:10093000C4FD9C43232CF4FC832744FEFD8B054718
:10094000B317F70093C7F7FF3E87832784FDF98F1E
:10095000232CF4FC8327C4FD032784FD98C30100E6
:10096000832784FE232AF4FC232804FC832744FDE8
:1009700013972700B707000CBA972326F4FC8327A8
:10098000C4FC032704FD98C30100832784FE850768
:100990002324F4FE0327C4FE832784FEE3E1E7F665
:1009A000232404FCF32740F1BE84A6872322F4FC11
:1009B000832744FC1397C700B707200CBA9723205E
:1009C000F4FC832704FC032784FC98C30100010086
:1009D0000100F2506254D25421618280011122CE72
:1009E00000102326A4FE010072440561828041119B
:1009F00022C600080100324441018280411122C612
:100A0000000801003244410182801D7186CEA2CCD3
:100A100080101385C18E8525B7170410054798C32C
:100A2000B71704109C4313F78700A147E31AF7FE9A
:100A3000231704FEBDA20357E4FE8D4763EDE702D2
:100A4000B7170410DC430357E4FE0E079306F00FBC
:100A50003397E6007D8F8357E4FE8E073357F70008
:100A60008357E4FE420741838607930604FFB69747
:100A7000239CE7FC15A20357E4FE8D4763F4E704CB
:100A80000357E4FE9D4763EFE702B71704109C4746
:100A90000357E4FE71170E079306F00F3397E60035
:100AA0007D8F8357E4FEF1178E073357F700835786
:100AB000E4FE420741838607930604FFB697239C12
:100AC000E7FCD9A80357E4FE9D4763F4E704035706
:100AD000E4FEAD4763EFE702B7170410DC470357A6
:100AE000E4FE61170E079306F00F3397E6007D8F43
:100AF0008357E4FEE1178E073357F7008357E4FE70
:100B0000420741838607930604FFB697239CE7FCC0
:100B100061A00357E4FEAD4763F4E7040357E4FE26
:100B2000BD4763EFE702B71704109C4B0357E4FE81
:100B300051170E079306F00F3397E6007D8F83570A
:100B4000E4FED1178E073357F7008357E4FE4207C0
:100B500041838607930604FFB697239CE7FC2DA8E4
:100B60000357E4FEBD4763F9E7020357E4FEC147BC
:100B700063E4E702B7170410DC4B139707014183C6
:100B80008357E4FE1377F70F4207418386079306E6
:100B900004FFB697239CE7FC8357E4FE85072317E1
:100BA000F4FE0357E4FEC147E3F7E7E8231704FE2A
:100BB0007DA08357E4FE8607130704FFBA9703D787
:100BC00087FD9307F00763FCE7028357E4FE86077F
:100BD000130704FFBA9783D787FD13070008B307ED
:100BE000F7401397070141838357E4FE420741878B
:100BF0008607930604FFB697239AE7FA1DA083574A
:100C0000E4FE8607130704FFBA9703D787FD8357CF
:100C1000E4FE420741878607930604FFB697239AAE
:100C2000E7FA8355E4FE8357E4FE8607130704FFC3
:100C3000BA9783D787FD3E868356E4FE8357E4FE4A
:100C40008607130704FFBA97839747FB3E871385F0
:100C5000C191012E8357E4FE85072317F4FE035745
:100C6000E4FEC147E3F7E7F4130764FC930744FA93
:100C70003A86C5453E85F128AA872316F4FE835798
:100C8000C4FE035764FC3A86BE8513858195D12C3A
:100C9000B71704109843B71704105D9B98C3112031
:100CA00041B3011106CE22CC001079731303033D2A
:100CB0001A91F977130704FFBA97938681981387DF
:100CC000073C89679387C7C33E86B6853A85C122AC
:100CD000232604FEB1A8F977130704FF3E97832764
:100CE000C4FE8607BA9783D7073CE207BE86B717CC
:100CF00004109843B7070001FD177D8FB717041044
:100D0000558F98C3B71704109843B717041013678B
:100D1000270098C30100B71704109C4313F747003E
:100D20009147E30AF7FE8327C4FE85072326F4FED6
:100D30000327C4FE85679387D7E1E3FEE7F8010048
:100D400001000963130303C31A91F2406244056171
:100D50008280797122D60018232EA4FC232CB4FCA7
:100D6000232AC4FC8327C4FD83D707002315F4FE80
:100D7000832744FD2390070085472326F4FEA9A07E
:100D80008327C4FE86070327C4FDBA97839707000D
:100D90000317A4FE6355F7028327C4FE86070327C3
:100DA000C4FDBA9783D707002315F4FE8327C4FE3A
:100DB000139707014183832744FD2390E70083278E
:100DC000C4FE85072326F4FE0327C4FE832784FD83
:100DD000E368F7FA8317A4FE3E85325445618280AA
:100DE000AA8581460146014585A14111971700A0BA
:100DF0009387E75522C4171400A0130444551D8C93
:100E000026C206C60984BE8411E42244B24092443C
:100E10004101EDB67D1493172400A6979C43829759
:100E2000E5B74111971700A09387675222C41714A2
:100E300000A01304C4511D8C26C24AC006C60984F2
:100E400081443E89639784025D36971700A093879B
:100E50000750171400A01304844F1D8C098481448B
:100E60003E89639F8400B24022449244024941017A
:100E7000828093972400CA979C4385048297D9B7B0
:100E800093972400CA979C4385048297D9BFB3C720
:100E9000A5008D8BB306C50081E78D4763EEC700C3
:100EA000AA876378D50A03C7050085078505A38F40
:100EB000E7FEE3EAD7FE828013773500AA8711CBDD
:100EC00003C7050085078505A38FE7FE13F73700E5
:100ED000FDB713F7C6FF130607FE63FBC70483A322
:100EE000050083A2450083AF850003AFC50083AE34
:100EF000050103AE450103A3850183A8C50123A015
:100F0000770023A2570003A8050223A4F70123A614
:100F1000E70123A8D70123AAC70123AC670023AEAA
:100F20001701938545029387470223AE07FF75B7E4
:100F30002E883E866360E6021388D7FF014663660B
:100F400007010D071D8F1376C7FFB297B295E3EC2B
:100F5000D7F482808328080011061108232E16FF7B
:100F6000D1BF5D7122D406D62A842EDA32DC36DE79
:100F7000BAC0BEC2C2C4C6C603A5818011C51C4D7D
:100F800081E72AC6652332450C455418228636CEA1
:100F9000EF00F028B250225461618280011126CA0C
:100FA0004AC806CE22CC4EC652C4AA842E8901C598
:100FB0001C4D91E3A52B9C4C804499E32685BD23D1
:100FC00097170010938747F6631CF402C0408357BD
:100FD000C400A18BB1C71C48A1C7FD59294A1C44B4
:100FE00083450900FD17B1E91CC463DE07062286AC
:100FF000A94526857920FD576308F502294535A0C6
:1010000097170010938747F46314F4008044C1B726
:1010100097170010938747EFE31BF4FAC04445BFCE
:10102000A2852685392A55D97D55F2406244D2449D
:101030004249B249224A056182801CC4050963D72E
:101040000700184C63CBE700638945011C401387F8
:10105000170018C02380B70059B7228626851520AF
:10106000E31F35F7D1B71C401387170018C0294775
:101070002380E70061B7AA8503A5818005B76FF0DB
:101080006F8C011122CC26CA4AC806CE4EC6AA844D
:101090002E89328401C51C4D91E349299717001010
:1010A000938787E86319F406C0401C4C1CC483571F
:1010B000C400A18BC9C31C48BDCF1C48084093790C
:1010C000F90F1379F90F1D8D5C486346F500A28571
:1010D000268581262DE51C440505FD171CC41C40F2
:1010E0001387170018C0238037015C486389A70065
:1010F0008357C400858B81CBA9476316F900A2856D
:101100002685012E0DEDF2406244D244B2494A8553
:10111000424905618280971700109387E7E26314C4
:10112000F400804459B7971700109387E7DDE31E5A
:10113000F4F6C0449DBFA285268521203DDD7D5962
:10114000D9B7411122C426C24AC006C683A48180F1
:101150002A892E8489C49C4C99E32685C12E971731
:101160000010938767DC6317F402C0408317C40044
:101170001397070193F687004183ADEA9376070141
:1011800095EA25472320E90093E707042316F40096
:101190007D5571A897170010938707DB6314F4003F
:1011A0008044E9B797170010938707D6E310F4FC43
:1011B000C0446DBF118B0DC74C5889C993074404B7
:1011C0006384F5004A85B525232A04028357C400A9
:1011D0002322040093F7B7FD2316F4001C481CC01B
:1011E0008357C40093E787002316F4001C4881EF5F
:1011F0008357C4001307002093F707286385E7008F
:10120000A2854A85ED218317C4001397070193F641
:10121000170041839DC2544823240400B306D040E4
:1012200014CC1448014581E61377070831FFB2401A
:10123000224492440249410182809376270001466C
:1012400091E2504810C4F1BFAA8817150010130589
:10125000E5DA1C4185E317170010130767E418C18E
:1012600017F5FF7F130505E8BA8709C51C4123243C
:10127000F708BA87D8437D487D556346E804638DF7
:10128000080203A887086300080413152700429585
:1012900010C10323081005463316E6003363C3006C
:1012A000232068102320D50889466397D800832619
:1012B0004810558E2322C810930617000A07D4C37E
:1012C000BA978CC70145828083D7C500011122CC13
:1012D00026CA06CE4AC84EC613F78700AA842E84B3
:1012E00065E7D8416347E000B8416344E000014549
:1012F000C1A058546DDF03A904009396370123A0C1
:10130000040063DE060668488357C400918B99C7C2
:101310005C401D8D5C5899C33C401D8D5C540C5045
:101320002A86814626858297FD570357C400631D90
:10133000F5009440F54763E4D708B70740208507D8
:10134000B3D7D700858BA5CF1C48232204001CC02F
:101350009317370163D80700FD576314F5009C40CD
:1013600091E368C84C5823A02401D1D193074404C9
:101370006384F50026857529232A04028DBF0C504D
:101380008546014626850297FD57E31FF5F69C40EA
:10139000A5DF75476385E70059476395E70023A0FC
:1013A0002401B1B78357C40093E707042316F40060
:1013B000F2406244D2444249B249056182801367D7
:1013C00007042316E400EDB783A90501E38109F2C0
:1013D00003A905008D8B23A035013309394101474D
:1013E00091E3D84918C4E35420F11C540C50CA8628
:1013F0004E8626858297634AA0008357C4007D5598
:1014000093E707042316F40065B7AA993309A940A6
:10141000D9BF9C49B9CF011122CC06CE2A8411C56F
:101420001C4D81E72EC61922B245971700109387ED
:10143000A7AF639BF5004C408397C50095C72285F5
:101440006244F240056149B5971700109387C7AF12
:101450006394F5000C44CDB7971700109387C7AA83
:10146000E39CF5FC4C44C9BFF24062440145056170
:10147000828001458280411122C406C62A84231637
:10148000B5002317C50023200500232205002324CF
:1014900005002322050623280500232A0500232C06
:1014A0000500214681451305C505C5249717000091
:1014B0009387A7835CD097170000938707861CD477
:1014C000971700009387478A5CD49717000093878B
:1014D000078DB24000D01CD822444101828097057C
:1014E0000000938545F391A2411126C213068006A0
:1014F0009384F5FFB384C4024AC02E8922C406C671
:1015000093854407D12E2A8419C92320050023225C
:101510002501310508C4138684068145BD24B240E7
:101520002285224492440249410182801C4DADE350
:10153000411122C406C697070000938787FA1CD57D
:1015400023240504232605042328050483A7C1803A
:101550002A846314F50085471CCD22851D2848C0C8
:101560002285052808C422852D2048C4484001460C
:101570009145113708440546A545F53D48440946BF
:10158000C945D53D8547B2401CCC224441018280EB
:101590008280411126C283A4C1809C4C4AC006C6E9
:1015A00022C42A8999E32685513793848404804490
:1015B000DC40FD1763D607009C40B1CF8440C5BF17
:1015C0000317C40031E7C1778507232204062320CF
:1015D000040023220400232404005CC42328040004
:1015E000232A0400232C0400214681451305C40549
:1015F000692A232A0402232C040223240404232618
:101600000404B2402285224492440249410182806E
:101610001304840679BF91454A85F93588C02A8428
:1016200051FDB1472320F900E9BF797122D44AD096
:101630004ECE52CC5AC85EC606D626D256CA2A8983
:101640002E8A130485048149054BFD5B0444832ADB
:101650004400FD1A63D00A0200406DF8B2502254D3
:1016600092540259624AD24A424BB24B4E85F249D9
:101670004561828083D7C400637BFB008397E400CD
:1016800063877701A6854A85029AB3E9A900938406
:101690008406C1B75971CAD02E898395E500A2D4BA
:1016A000A6D286D63284B68463DC05008357C9008F
:1016B00023A0040093F707088DE39307004005A0DB
:1016C00030008927E34405FE3247BD67F98F7977FB
:1016D000BA9793B717009CC0CDB793070004B650D4
:1016E0001CC026549654065901456561828083D7F3
:1016F000C500011122CC06CE26CA4AC8898B2E8489
:1017000089CF930774041CC01CC885475CC8F2408D
:101710006244D244424905618280740030002A89C3
:10172000953FA245AA844A85452A01ED8317C40046
:1017300013F7072069FFF19B93E727002316F400B6
:10174000C9B7970700009387C7D92324F9028357A5
:10175000C40008C008C893E707082316F400A2478E
:101760005CC8B24789CF8315E4004A85E92501C9E1
:101770008357C400F19B93E717002316F400035529
:10178000C400C98C2316940059B73D432A8763735C
:10179000C3029377F700BDEFADE5937606FF3D8A70
:1017A000BA960CC34CC30CC74CC74107E36BD7FEBA
:1017B00011E28280B306C3408A0697020000969623
:1017C0006780A6002307B700A306B7002306B7006B
:1017D000A305B7002305B700A304B7002304B7008F
:1017E000A303B7002303B700A302B7002302B70087
:1017F000A301B7002301B700A300B7002300B7007F
:10180000828093F5F50F93968500D58D939605010B
:10181000D58D61B793962700970200009696868231
:10182000E78086FA9680C1171D8F3E96E374C3F851
:10183000A5B7D5C183A7C5FF011122CC06CE13845D
:10184000C5FF63D307003E942AC6AD2517070010D5
:101850001307077B1C4332453A8681EB23220400A1
:1018600000C36244F2400561B9A5637EF4001440F0
:101870003307D4006396E7009843DC43369718C0DB
:101880005CC000C2F9BF3E87DC4399C3E37DF4FE30
:1018900014433306D700631F86001040B29614C36A
:1018A0003306D700E39FC7FA9043DC43B29614C3D4
:1018B0005CC345BF6375C400B1471CC15DB7104030
:1018C000B306C4006396D7009443DC43B29614C0B9
:1018D0005CC040C379B78280011126CA9384350069
:1018E000F1984AC806CE22CC4EC6A104B1472A8937
:1018F00063F5F404B14463E4B4044A85652B9707A7
:1019000000109387E76F9843BE863A8421E417045A
:1019100000101304246F1C4089E781454A85612E1D
:1019200008C0A6854A85412EFD5963183507B14781
:101930002320F9004A85412331A0E3DE04FAB147B0
:101940002320F9000145F2406244D2444249B249A1
:10195000056182801C40858F63CE07022D46637629
:10196000F6001CC03E9404C029A05C4063128702AC
:101970009CC24A8589231305B400930744006199EA
:101980003307F540E301F5FC3A94898F1CC065BF2D
:101990005CC3C5B72287404095BF130435007198DA
:1019A000E30385FCB305A4404A853126E31D35FBDE
:1019B000BDBF1C46FD171CC663DA0700184E63C581
:1019C000E700A9476394F5006FF0AFEB1C422E854A
:1019D0001387170018C22380B7008280011122CC20
:1019E00026CA4AC84EC652C406CE2A89AE89328457
:1019F000B304D6007D5A63149400014509A88345B9
:101A000004004E864A8575370504E31645FFF2400B
:101A10006244D2444249B249224A0561828035710A
:101A200022CD26CB4AC94EC706CF52C556C35AC18E
:101A3000DEDEE2DCE6DAAA89AE843289368401C5CC
:101A40001C4D91E3E534970700109387E74D639BA6
:101A5000F40C83A4490083D7C400A18BF5C79C482C
:101A6000E5C793070002A304F1029307000302D223
:101A70002305F10222C6930B5002970A0010938AA5
:101A8000AA4E054C294B4A848347040099C36390AE
:101A9000770FB30C2441630D2401E6864A86A685A0
:101AA0004E852D3FFD576306F51E9257E6973ED2B1
:101AB00083470400638F071CFD571309140002C8F5
:101AC00002CE3ECA02CCA309010482D48345090098
:101AD00015465685D926C2471304190059E913F74C
:101AE000070109C713070002A309E10413F78700E0
:101AF00009C71307B002A309E104834609001307CD
:101B0000A0026380E608F2474A84814625460347DF
:101B1000040093051400130707FD6379E60AB5CAAC
:101B20003ECE85A897070010938707426395F4007F
:101B300083A489000DB7970700109387E73CE39CC7
:101B4000F4F083A4C90001BFA6854E85EFF06FDFD6
:101B500009D97D55FA406A44DA444A49BA492A4AC1
:101B60009A4A0A4BF65B665CD65C0D61828005047E
:101B700021BF330555413315AC00C98F3EC82289BA
:101B8000B1B7324793064700184336C66349070288
:101B90003ACE034704009307E002631FF7040347AC
:101BA00014009307A002631BF702B24709041387CE
:101BB00047009C433AC663C107023ECA35A83307B3
:101BC000E04093E727003ACE3EC8E1B7B38767030A
:101BD0002E848546BA9725BFFD57C5B7050402CAAE
:101BE00081468147254603470400930514001307E7
:101BF00007FD6376E606F1F2834504000D461705FE
:101C000000101305E536512C11CD9707001093876E
:101C100027361D8D93070004B397A700424505049E
:101C20005D8D2AC883450400194617050010130569
:101C30006534130914002304B10285243DC197E7DC
:101C4000FF7F9387274A95E74247B24713770710EC
:101C500009CF91073EC69257D2973ED22DB5B38792
:101C600067032E848546BA97BDBF9D07E19BA107F8
:101C7000D5B7780097060000938686D626860C088E
:101C80004E8597000000E7000000FD572A8AE31404
:101C9000F5FC83D7C40093F70704E39C07EA1255C9
:101CA00055BD780097060000938686D326860C08DB
:101CB0004E85092ED9BF411122C42A842E8597074B
:101CC000001023A5074606C6EFE00FCFFD576318A7
:101CD000F5009707001083A7674591C31CC0B24069
:101CE000224441018280411122C42E848395E50063
:101CF00006C69123634905007C48AA977CC8B24078
:101D00002244410182808357C4007D777D17F98F7B
:101D10002316F400EDB783D7C500011122CC26CAE3
:101D20004AC84EC606CE93F70710AA842E8432897D
:101D3000B68991C78395E500894601462D228357D0
:101D4000C4007D777D17F98F8315E4002316F40016
:101D50006244F240CE864A86B24942492685D24440
:101D600005613DA8411122C42E848395E50006C675
:101D7000DD28FD570357C400631BF500FD77FD17F1
:101D8000F98F2316F400B240224441018280856716
:101D9000D98F2316F40068C8FDB78395E5001DA808
:101DA000411122C42A842E85B285368697070010F9
:101DB00023AE073606C6EFE0EFC7FD576318F50000
:101DC0009707001083A7873691C31CC0B2402244F6
:101DD00041018280411122C42A842E859707001078
:101DE00023A6073406C6EFE0AFAFFD576318F50032
:101DF0009707001083A7873391C31CC0B2402244C9
:101E000041018280411122C42A842E85B285970720
:101E1000001023AD073006C6EFE08FAEFD57631804
:101E2000F5009707001083A7673091C31CC0B2402C
:101E3000224441018280411122C42A842E859707C1
:101E4000001023A5072E06C6EFE0CFAFFD5763189D
:101E5000F5009707001083A7672D91C31CC0B240FF
:101E6000224441018280411122C42A842E85B285F8
:101E700036869707001023AB072A06C6EFE0CFADE2
:101E8000FD576318F5009707001083A7272A91C311
:101E90001CC0B24022444101828093F5F50F2A967E
:101EA0006314C5000145828083470500E38DB7FEBA
:101EB0000505FDB782808280797152CC9C493A8AAF
:101EC000984522D426D24ECE56CA06D64AD05AC8F3
:101ED0005EC6AA892E84B284B68A63D3E700BA8725
:101EE0009CC00347340419C385079CC01C4093F76A
:101EF000070281C79C4089079CC00329040013790D
:101F00006900631A0900130B9401FD5B5C4498405F
:101F1000998F634CF90483473404B336F0001C40B6
:101F200093F70702A5EB13063404D6854E85029A73
:101F3000FD576303F5041C4011469840998B5444A7
:101F400081446397C700B384E64063D304008144AF
:101F50001C4418486354F700998FBE9401496904E2
:101F60007D5B63982405014509A885465A86D68578
:101F70004E85029A631E75017D55B25022549254CB
:101F80000259F249624AD24A424BB24B45618280C1
:101F90000509ADBF3307D40013060003A301C7042E
:101FA0000347540493871600A2978906A381E70488
:101FB0009DBF85462286D6854E85029AE30E65FB37
:101FC000050945B7797122D426D24AD04ECE06D61D
:101FD00052CC56CA5AC82E84B6899386350483C516
:101FE000850193078007AA84328963ECB7009307C1
:101FF000200663EDB7006386051C93078005638B9D
:10200000F512930A24042301B40415A89387D5F983
:1020100093F7F70F5546E366F6FE17060010130612
:1020200066F88A07B2979C43B29782871C43930A4B
:102030002404938647009C4314C32301F40485477A
:1020400065A21C40084313F60708930545000DC21E
:102050001C410CC363D807001307D002B307F0403C
:10206000A301E40417060010130646F12947A9A0AE
:1020700013F607041C410CC371DEC207C187D9BF28
:1020800010401C43137806081385470063050800B9
:1020900008C39C4339A01376060408C37DDA83D7AE
:1020A00007001307F00617060010130626ED6384D9
:1020B000E50E2947A30104044C400CC463C5050088
:1020C00008406D9908C099E3B68A99CDB68AB3F5F0
:1020D000E702FD1AB29583C505002380BA00BE85CC
:1020E000B3D7E702E3F5E5FEA147631EF7001C4006
:1020F000858B91CB58401C4863C7E70093070003CA
:10210000A38FFAFEFD1AB386564114C84E87CA86BD
:102110007000A28526854D337D5A631B450D7D5584
:10212000B250225492540259F249624AD24A424B66
:1021300045618280A302B40417060010130606E46A
:102140000C40084313F805081C411105630D0802F3
:1021500008C313F7150001C793E505020CC04147FA
:10216000B1FB0C4093F5F5FD0CC0A9B71C4093E7FB
:1021700007021CC093078007A302F404170600108F
:10218000130606E175BF13F8050408C3E30308FC52
:10219000C207C1837DBF214731BF10401C434C485B
:1021A00013780608138547006306080008C39C439C
:1021B0008CC301A808C3137606049C4375DA2390E8
:1021C000B70023280400B68A91B71C4350408145CC
:1021D0009386470014C383AA070056857D3901C53D
:1021E0003305554148C05C401CC8A301040439BFF5
:1021F00014485686CA8526858299E30245F31C4019
:10220000898B8DE7B2474844E35CF5F03E8509BF12
:1022100085465686CA8526858299E30265F1050AB8
:102220005C443247998FE345FAFEE9BF014A930ABD
:1022300094017D5BF5B7411122C42A842E85B285B5
:1022400036869707001023A307EE06C6EFD09FF24D
:10225000FD576318F5009707001083A727ED91C37A
:0A2260001CC0B240224441018280FC
:10226C0000000000441E0090641E0090241E00908C
:10227C000000000000000000000000000000000052
:10228C000000000000000000000000000000000042
:10229C000000000000000000000000000000000032
:1022AC000000000000000000000000000000000022
:1022BC000000000000000000000000000000000012
:1022CC005020009000B4C404000000900000009066
:1022DC005472617020696E20457863657074696F03
:1022EC006E0D00004D43415553453A203078256C16
:1022FC00780D0A004D45504320203A203078256C4B
:10230C00780D0A004D5456414C203A203078256CFB
:10231C00780D0A005472617020696E20496E7465E4
:10232C0072727570740D0000464C415348584950F8
:10233C0000000000464C415348000000494C4D0041
:10234C0030393A35323A34380000000044656320A5
:10235C00313520323032310048756D6D696E67420F
:10236C006972642053444B204275696C6420546933
:10237C006D653A2025732C2025730D0A0000000092
:10238C00446F776E6C6F6164204D6F64653A2025E5
:10239C00730D0A00435055204672657175656E6366
:1023AC007920256C7520487A0D0A00002A2A2A2AE1
:1023BC002A2A2A2A2A2A2A2A2A2A2A456E61626C61
:1023CC0065204543472A2A2A2A2A2A2A2A2A2A2ADF
:1023DC002A2A2A2A2A2A2A2A2A000000526177202D
:1023EC0064617461203A20615B25645D203A20258C
:1023FC007828482920203B205369676E6564206447
:10240C00617461203A20625B25645D203A25642862
:10241C004429090A00000000546865206D61782089
:10242C0076616C7565206973203A202564284429EF
:10243C00205F5F5F43617465676F72793A5B2564F7
:10244C005D20090A200000000000000000000000D0
:10245C000000000000001000170017001000110011
:10246C0015000E000D00120011000F0014001400D6
:10247C000E001100150010000F00140012000E00C9
:10248C00140014000F000F0013000F000E001500B5
:10249C0013000F00120012000D00100013000E00AC
:1024AC000F00140011000F00140012000C000E009D
:1024BC0012000E000E00130011000D00130014008A
:1024CC000F00100013000F000E00120011000E0080
:1024DC001300150011001600190011000D00130057
:1024EC000F000B00110013000F00110013000E0061
:1024FC000E00130011000C00120014000F0011004C
:10250C00150011000F00130012001000140014002D
:10251C0010001200170012000E000F0010000E0029
:10252C00130015000E000F0013000F000D00130018
:10253C0012000E0011001400100010001400110005
:10254C000E0012000F000D001300150013001700F1
:10255C001B00160015001A001A0016001B002100A3
:10256C001F002200260021001F0021001C00170064
:10257C001B001B001600160019001300110016009A
:10258C0012000D00110011000B000A000C000700D6
:10259C0007000C000C0008000C0010000B000800D9
:1025AC000C00090009000F000D00070003000100DA
:1025BC0085008100090007000C0022003E0061002C
:1025CC007F007F007F007F007F007F007F007F0007
:1025DC007F007F007F007F007F007F006D003C004C
:1025EC000D009500A600B000AD00AD00AB00A10041
:1025FC008F00850002000B000C0009000B000C0082
:10260C00080007000B00070004000A000B0008007C
:10261C000E0010000E000D00110010000D00120035
:10262C0011000C00110016001100110016000E0014
:10263C000D00120012001000130015001100120002
:10264C0016000F000C00110011000E0012001600F5
:10265C0012001000120010000C00110013000F00EB
:10266C00110014001100110015000F000C001200D5
:10267C0013000E00110014001100100013001100C3
:10268C001000120013000F001100140011000F00B5
:10269C0013001100110015001500120017001C008A
:1026AC00180017001D001B001900210023001F003B
:1026BC00210025001F001D0022001E001B001E0013
:1026CC001C0017001A001B00160012001600130045
:1026DC001000130011000D001100150010000F0068
:1026EC00150011000F00110011000E001100160052
:1026FC0011000E00130010000B000F000F000B0058
:10270C000E0011000D000C000F000E000A000D0051
:10271C000E000A000E0011000C000D0010000C0041
:10272C0009000E0010000E000E0011000D000E002E
:10273C00120010000C0011001300100014001800FF
:10274C0014001300190015000F00140014000F00E2
:10275C0010001500110011001800150011001300D5
:10276C0014000F00120014000F00100015001200CE
:10277C000E00130014000E001000160013001300BE
:10278C00190014000F00110012000D000E001400AF
:10279C0013001100160014000D00100012000D00A3
:1027AC000E0014000E000B00110011000C000F00A5
:1027BC00150011001200150011000E0012000E0081
:1027CC0008000E0012000D000E0012000F000F008A
:1027DC001600140010001100140010001100160057
:1027EC0013000F00120012000F00130011000D0057
:1027FC001000140010000D00130012000D00120048
:10280C00160011000E00140012000D001200120030
:10281C000E00100011000E000F001400120010002A
:10282C00160012000E00110011000E001000150011
:10283C0010000E00130011000C0010001400110009
:10284C001200150011000E001400140010001100ED
:10285C0012000E00120017001300100015001500D6
:10286C000D000F0012000F001100160013000F00D6
:10287C00120013000E000D000F000F0010001300CB
:10288C0010000C00120013000E00110014001100B7
:10289C001000140011000D00130016001400140099
:1028AC001700110011001B00180015001D0023005B
:1028BC001F001F0022001E001E001E001A00160022
:1028CC001900160011001300170012001100160059
:1028DC0014000E0011000E0007000B000E00070084
:1028EC0007000F000E000A000F000C0007000A0082
:1028FC000F000E00110014000E0002008000830077
:10290C00840003000A000E001C003B005F007F00E7
:10291C007F007F007F007F007F007F007F007F00B3
:10292C007F007F007F007F007F0067003C00150068
:10293C008C009C00A600A700A200A700AC00A4007D
:10294C009A0095008D0000000400030009000800A7
:10295C0003000700090006000A000F000B00090025
:10296C000E000F000A000D00110010000F001400E3
:10297C0012000E00120013000E00110017001200BE
:10298C000E00130010000D001100140011001100B6
:10299C00140011000F00130012000D00120014009F
:1029AC000F000F00140011000E00130012000F0096
:1029BC00140011000E001100150011000D00110083
:1029CC0012001100140011000E001100160011006D
:1029DC000C00110012001000120015001000110064
:1029EC001600150016001D001C001A001F00220006
:1029FC001B001E00230021002100250023002000C5
:102A0C00220023001E001C001F001C001C002100C3
:102A1C001F0019001A0019001300130015001100F3
:102A2C001100120011001000130011000E000F0015
:102A3C00120011000F0016001300100011001100FD
:102A4C000B000D0013000E000A0010000E000A000F
:102A5C000F000D00070009000C00090007000D0015
:102A6C000E000D000F000E0009000B0010000C00F2
:102A7C0009000F000F000D00100012000E001000D6
:102A8C00140011000F00160014000E0012001200AA
:102A9C000C000D001400130011001500150011009E
:102AAC001000150013001100160014001000170080
:102ABC00150010001300140010000F001500130077
:102ACC00110018001700130016001700100010005A
:102ADC00140010000C00140012000E001200130061
:102AEC000E000F00130010000E00140014000F0055
:102AFC00120015000F000F00130011000F00120040
:102B0C0012000E00100013000E000D001100120038
:102B1C001000150012000D00120015000F000F0020
:102B2C00130010000D00130014000F001100120010
:102B3C000D000C0011000E000C00130012000F0011
:102B4C00120013000F000F00140012000F001300EE
:102B5C0015001000100011000D000E0012001000E6
:102B6C000E00140014001100150014000F001000CA
:102B7C00160013000F00130013000D000F001300BC
:102B8C000E000D00110011000E00110012000D00BE
:102B9C001000140010000F00120011000D001300A3
:102BAC001400110017001A00140018001E001D005C
:102BBC0017001D0021001F0026002F0027002000F9
:102BCC00260020001B001D001E00190018001C0010
:102BDC0018001400160013000F0012000F000B0059
:102BEC000E000E0005000500090007000500080096
:102BFC000900050007000A00070007000B0007008A
:102C0C000200010082008A0089000100010003001B
:102C1C0017002C004A007A007F007F007F007F00A5
:102C2C007F007F007F007F007F007F007F007F00A0
:102C3C007F007F0052002B000C009500A500A20025
:102C4C00A000A500A4009D009B0095008B008600B1
:102C5C00840005000800060007000B0008000700B0
:102C6C000C000A0008000C000F000D000E001000F4
:102C7C000E000D00130012001000160017001100BA
:102C8C00100014000D000C00120011000D001100BA
:102C9C0015001100130014000E000D00120012009C
:102CAC001000130016001100100016000F000C008D
:102CBC00110012000E00110015000F00100013007F
:102CCC0011001000120015000E00110014000F006E
:102CDC001100120010001100130011000F00110060
:102CEC001300100012001600140013001A001D002F
:102CFC0017001B0021001D001D0022001E001D00DE
:102D0C00250023001C0021002400210022002500A6
:102D1C0020001C001F001D00180019001C001400CE
:102D2C001300170011001100120011000F00110008
:102D3C0013001100100012001100100012001000FE
:102D4C000D00110017000F00110014000E000B00F5
:102D5C000F0010000C000F0010000A000A000E00FB
:102D6C000B0007000C000E0008000A000E000C00FF
:102D7C000D000E000C000A000D000C0009000D00E7
:102D8C0011000C000C0012000F000C0012001400BB
:102D9C000F00120016001100100014000F000F009D
:102DAC00150014000F00130018001100110015007D
:102DBC0011000E00140013000E001200140010007D
:102DCC001100150012001000130014001100130064
:102DDC00170013001100150013000F001300120050
:102DEC000E001200150011001000140011000E004E
:102DFC00110011000E001100150013001100140039
:102E0C0011000D00100011000C000F0012000E003C
:102E1C000E00130010000E00140015000E0011001F
:102E2C00150011000F00130010000F00120011000C
:102E3C000D000F00150010001000140011000E0002
:102E4C00110012000E0011001500100011001800E6
:102E5C0012000D00130014000E00100013000F00E0
:102E6C000E0012000F000C00100013000F000E00DB
:102E7C00140010000D0011000F000E0012001500C0
:102E8C00110015001E001D001E0023001F001A005B
:102E9C001C001D001A001A00200020001F00250035
:102EAC0024001F00250028002400260028002400F0
:102EBC001D001E001A001400150015000E000D0058
:102ECC000E000B000300040001008300010003004E
:102EDC0082008000030080008100030006000200D5
:102EEC0007000800010081008300880089000200AF
:102EFC000500030012002800450071007F007F00D0
:102F0C007F007F007F007F007F007F007F007F00BD
:102F1C007F007F007F007F0060002A0000009C0083
:102F2C00B100B500B300B200A80095008600000007
:102F3C000A001200080007000C000A0009000B0030
:102F4C00090005000A000C0008000A000E000D0024
:102F5C000B00110011000B00100012000F001000EC
:102F6C00130011000F00150013000F000F001200CA
:102F7C0011001100140011001000130012000D00BC
:102F8C000F00140011000F00140011000F001300AB
:102F9C0011000F00120013000F001100140011009B
:102FAC000F00140012000E00110014000F0011008D
:102FBC00130011000F00130013000F001100130079
:102FCC00100011001300110010001600170014005F
:102FDC0019001C0019001D002300210021002800ED
:102FEC0025002000230026002200240029002500B3
:102FFC002300280027002100210023001C001B00B7
:10300C001F001B0015001600130010001100130008
:10301C000F001000150011000F00140011000D001E
:10302C001100150010001000140011000E00120009
:10303C0012000C000F0012000E000D0012000F0009
:10304C000C000F000F000A000C000F000B00090011
:10305C000F000F000C00110011000C000D001100EE
:10306C000F000F00110010000D00100011000D00DA
:10307C00100013000F000F001500130010001500B6
:10308C0015000F001100140011001100170016009C
:10309C00120016001500100012001600120010008D
:1030AC00140014001100150015000F00120014007C
:1030BC0011001100160014001100140014000E0071
:1030CC00100014000F000D00140012000D0012006F
:1030DC0013000F00100011000E000F00150011005E
:1030EC000D00110012000D00100012000F000E0058
:1030FC00130012000F001300160011000F00110036
:10310C000E000E00130011000D00110012000E0035
:10311C000F0012000F000D00120011000F00120022
:10312C0012000D00100014000F000F00130012000D
:10313C000E00110012000E000F00140011001100FF
:10314C00150012001100160011000C0010001400E4
:10315C0011001000140015001400150015000F00CC
:10316C000C0011000F000D00110011000E001200D8
:10317C0014000F000F0013001300110015001200B3
:10318C000C00110014000F001100140012000E00AE
:10319C00130012000E00110013000D000E0013009E
:1031AC0011000F00140013000E00120014000E008A
:1031BC000E00110010000F001500140013001A006F
:1031CC001C00150016001C00190017001C001D0027
:1031DC001F00250027002100220023001E001C00D8
:1031EC001D001B0017001900190013001400180013
:1031FC0012000F00140011000B000B000C00060055
:10320C0006000B00090005000B000B00060009006E
:10321C000B00070007000C000A00070006008000E6
:10322C0087008500010003000900170026004200FA
:10323C006C007F007F007F007F007F007F007F009D
:10324C007F007F007F007F007F007F007F00680091
:10325C0038000C009700AB00AE00B000B200A80024
:10326C0099009100850008000A000A000F000D006B
:10327C0007000A000E00070007000C000B000A00F4
:10328C000F0010000C000F0011000D000E001300B9
:10329C0010000C0011001300100011001700150095
:1032AC00110011000D000C00110014001000110091
:1032BC00150011000E00120011001000160016006F
:1032CC000F00110013000D000E00140011000D0072
:1032DC00130017000F000E00130010000F00110058
:1032EC0012001000120014000E0011001500100046
:1032FC000F00130012000F00110014000F0011003A
:10330C001400100012001800170017001F001A00FC
:10331C0017001D0021001E001D00220020001C00B3
:10332C00220022001F002200260022002100230080
:10333C0021001C001F001E001800170019001300AC
:10334C001100150011000E00130012000C001100EA
:10335C00180011000D00110011000E0015001600D0
:10336C001100110011000D000C0011000F000D00D8
:10337C00120011000B000A000E000A0009000E00DA
:10338C000D000A000F000E000A000D0011000C00C9
:10339C0009000E000E000B00100010000D000F00B5
:1033AC0012000D000C00110010000D001200140092
:1033BC00100012001600120010001400140011006E
:1033CC001600160011001200150011001000140058
:1033DC0013000F0013001800140013001700120044
:1033EC001100150013000F00120013000E00100046
:1033FC00140011001000150012000F00140014002E
:10340C000F000F00150010000D00120011000D0030
:10341C00100013000E000F00130010000D0012001E
:10342C0013000F00130016001100100014001100FF
:10343C000F00150012000E00100012000E000F00FD
:10344C0012000E000B00110012000E0011001400EF
:10345C0011000F00140010000D00120011000E00DE
:10346C00120015000F000E00130010000F001400C6
:10347C0018001300130014001000100012001000AC
:10348C000C00100012000A000D0012000E000F00BC
:10349C00150011000D00110012000E001100150096
:1034AC0011001000130010000E00120012000F008B
:1034BC001100140012001000130010000D00120077
:1034CC0013000F0011001500110010001300100064
:1034DC000F00110011000E001200140010000F005C
:1034EC00140011000C00110014000F001100140046
:1034FC0011000F0014001300130018001900150020
:10350C0019001D00180019002200240022002700B9
:10351C0027002000210021001B0019001D001A00AB
:10352C001500170016000F001200150010001000F7
:10353C0013000F0009000B000A00060009000D0023
:10354C00080006000B00090006000A000D000D0023
:10355C000C000E00080002008100870087000100AB
:10356C00050006001700370058007F007F007F0021
:10357C007F007F007F007F007F007F007F007F0047
:10358C007F007F007F0078004C001A008B009D00AC
:10359C00AD00B100AD00AA00A4009400860080002C
:1035AC00090010000D000B000E000B0006000900B6
:1035BC000A00060009000E000A000A000F000E00A7
:1035CC000B00110014000E0010001300100010006E
:1035DC00160016000F000F0012000E000F00140052
:1035EC0011000E0011001100100012001300110048
:1035FC001100140012001000130011000D00120035
:10360C0014000E001100130011001200170011001D
:10361C000E00110012000D0011001200110010001C
:10362C00140011000F00110014000F001100150000
:10363C0011000E00130012000F00130015001100F2
:10364C0013001A001B00190020001F0019001E0097
:10365C0020001C001E002400220020002300230058
:10366C001F002200240020001F0023001F0019004F
:10367C001D001A0014001600170010001000160090
:10368C0011000E00120013001000110013001000A6
:10369C001100120011001000120011000D0010009A
:1036AC0010000B000C0011000E000C000F000D00A0
:1036BC000A000C000F000B000A000D000A000900A4
:1036CC000D000C0009000D000E000B000C0010008A
:1036DC000F000E00120013000D00100012000E005F
:1036EC001000130010000E00150013000D00120046
:1036FC0014000F001200160012000F00140014002A
:10370C000E0012001500110010001400130011001F
:10371C00160014000F0014001700130013001600FD
:10372C0013001100140015000E00100015001200FB
:10373C0010001400130010001400140010001100ED
:10374C0014000E000D0011000F000C0011001600EB
:10375C001200110013000D000A000F000D000C00E8
:10376C00160015001100110012000F000F001400BC
:10377C0012000F00130013000E000F0011000D00BB
:10378C000D00150013000F00140014000E001000A3
:10379C0013000F000F00150012000E001000110096
:1037AC000C000E0012000E000E001400120010008F
:1037BC00130013000E000F00130010000F00120076
:1037CC0010000D00120013000C000F00120010006E
:1037DC001000160013000F00130013000F0012004E
:1037EC0014000F000F00160013001100130013003B
:1037FC0011001200140012001000130012000E0031
:10380C00100011000D000E0013000E000E0014002D
:10381C0013001100130013000E000F0013000F0013
:10382C001000140012000F00130013000D00100004
:10383C0013000C000C0011001200100012001300F9
:10384C0010001100160013001100160017001500CF
:10385C0019001A00160017001C001A001B00230088
:10386C00260023002500260022001A001B00180049
:10387C0017001C0019001400150015000F000D0096
:10388C00120010000D0010000E0009000A000C00C0
:10389C00080008000A00070006000E0011000D00C9
:1038AC000D000E00070007000900020085008400CF
:1038BC008500810006000B0013002C0055007A00D7
:1038CC007F007F007F007F007F007F007F007F00F4
:1038DC007F007F007F007F007F0073004900250080
:1038EC008400A100A900AB00AB00A700A700A600B4
:1038FC0099008E008B0084000400050005000B006D
:10390C000A0009000B000C00070008000D000D0058
:10391C000D00100010000D00110014000F0010001D
:10392C0014000F000E001300140010001100120000
:10393C000E000F00170013000E00120011000E00F5
:10394C001200150010000F00130010000E001400E0
:10395C0014000F001200140010000D0012001100D2
:10396C001000110014000F001100150011001100BF
:10397C00130011000D0010001300100011001300B3
:10398C0010001100150011000E00110013000F00A3
:10399C0013001700140014001800170014001B006B
:1039AC001C001A001D0022001D001E00210020001A
:1039BC001E00210021001E00210021001C001D0002
:1039CC0020001B0017001B001A0013001200160029
:1039DC0011001000130011000F00140011000F0053
:1039EC001200140010001000130011000E00120041
:1039FC0013001000110012000D000D0012000F003A
:103A0C000B000E000D0009000B000E000A000B004D
:103A1C0011000E0009000E000F000B000D0010002D
:103A2C000C000B000F000D000A00100011000D001F
:103A3C000F0013000D000C00120011000F001400F9
:103A4C0017001500140012000F000D0013001100D8
:103A5C000F001500160012001500190013001200BB
:103A6C00160013000E0013001400100012001600B4
:103A7C0011001000140012000E00140019001800A0
:103A8C00110013000F000F00130012000E001400A1
:103A9C0016000F001100140010000D001200110090
:103AAC000D00120013000F00100014000F000F0087
:103ABC00140012000E00120013000F00100013006F
:103ACC000E000D00110010000D001200140010006B
:103ADC001100140010000E000F000F000D0012005A
:103AEC0014000F000F00150011000D001200120041
:103AFC000E00130014001000100013000E000C0038
:103B0C00100010000D00120014001100110015001F
:103B1C0012001300170010000A001100150010000D
:103B2C001000150012001000140014000E001200FA
:103B3C0013000E000E0012000F000D0012001100F9
:103B4C000D00110014001200170019000C000C00DD
:103B5C00110010000C000F0013000F000E001300DA
:103B6C0012000E00100010000F00150019001500B7
:103B7C0016001C00180015001B0020002100260058
:103B8C002A002900250020001B0017001A001C0029
:103B9C0016001700180014001300170011000E0077
:103BAC0011000F000A000B000D00090007000B00AC
:103BBC00080005000A000B0007000A000E000C00AC
:103BCC001000120005000100000085008B00890028
:103BDC0081008000040014002600470074007F0060
:103BEC007F007F007F007F007F007F007F007F00D1
:103BFC007F007F007F007F007F004F0027000900BF
:103C0C009700A700A500A500AA00A800A1009D0090
:103C1C0095008A008500820006000700020006005D
:103C2C000B00070007000B000800030009000B0045
:103C3C0008000C0011000D000D00130011000D0008
:103C4C00120013000E0011001500110011001600D7
:103C5C000F000C00110012000F00130015001100D2
:103C6C001000150011000E00130013000C001000C2
:103C7C00150011000F00130011000F0012001300AB
:103C8C000E001100130011000F00140013000F00A0
:103C9C00170015000A000E00150011000F0014008B
:103CAC0011000D00110013000F001100180013007B
:103CBC0014001A00180016001A001C0018001C0032
:103CCC0021001F001E00220021001E0022002400E3
:103CDC001F002100240020001F00240021001A00D6
:103CEC001A001A0014001400180013000E0014001F
:103CFC001100110011001100100010001300110030
:103D0C000E00140011000D00110015000D000E0026
:103D1C00130010000F00120010000B000E000F001B
:103D2C000B000D000F000C000A000F000D00080026
:103D3C000A000D000A000C0010000E000B000F0012
:103D4C000E000B00100012000F00110015001100E6
:103D5C000F00120011000D00100013000F001100D5
:103D6C00150011000F00130012000E0011001400BA
:103D7C0010001300180012001000140015001000A1
:103D8C001100150010001000150013001100170091
:103D9C0016001100120015000F0010001400110085
:103DAC001000160015001000120014001100100075
:103DBC00140012001000140013000E001200140066
:103DCC000F001100150011000E00120012000E0061
:103DDC00130013000D000D0013001200110013004E
:103DEC000F000A000E0011000D000D001200100053
:103DFC000E00120011000D00100012000E000F003A
:103E0C00150012000E00120012000E00100014001B
:103E1C0011001100150013000F00130014000E0008
:103E2C000F0012000F000F001400130012001700F7
:103E3C0014000D000F0010000D00100015001100F3
:103E4C000E00130011000D000F00130011001100E3
:103E5C00140013000E00110011000D000F001300D0
:103E6C0011000F00150013000F00140013000E00BA
:103E7C000F0011000E000E001300110011001500B0
:103E8C001400120016001A00160017001E001B006A
:103E9C0017001D001F001F002300280022001F0018
:103EAC0021001D0018001B001C0016001600170036
:103EBC0012001300180013000D00110011000B006C
:103ECC000A000B00080007000D000B0007000B0098
:103EDC000D00060007000B00080009000F000C0085
:103EEC00050002008000890085000700070008001B
:103EFC001C00330052007F007F007F007F007F009A
:103F0C007F007F007F007F007F007F007F007F00AD
:103F1C007F007F004D001A008C00A500B300B40098
:103F2C00B400B200A40092008A0080000D000E00C4
:103F3C000A000D000D00080009000C000700060027
:103F4C000B000C0009000C000F000A000C00110003
:103F5C000F000D00120011000F00130013000F00D2
:103F6C00130015000E000D001400140011001200B7
:103F7C0013000D000D0013001100100014001100AF
:103F8C000F00120013000E001000140011000F009F
:103F9C00130011000F00140013000F000F0012008B
:103FAC00110014001A0011000A00110014000D0079
:103FBC000F0013000F001100130012000F0011006E
:103FCC0014000F001100150011001300170016004B
:103FDC00140018001B0018001A001F001C001B0006
:103FEC00200022001F00200022001E0020002300C1
:103FFC001F001D00220021001C001D001D001600CA
:10400C001500170012000F00140011001000110011
:10401C0012000D001000160011000D00120015000A
:10402C000F00110013000E00100013000F000D0004
:10403C00110010000A000E001000090009000D000C
:10404C000B000A000E000D0009000D0010000B0003
:10405C000C0012000E00090011000F000B000E00E6
:10406C0012000E000E0011000E000D0012001200C6
:10407C000E001300160000000000000000000000FD
:10408C000000000000000000000000000000000024
:10409C000000000000000000000000000000000014
:1040AC000000000000000000000000000000000004
:1040BC0000000000000000000000000000000000F4
:1040CC0000000000000000000000000000000000E4
:1040DC0000000000000000000000000000000000D4
:1040EC0000000000232D302B20000000686C4C00D9
:1040FC006566674546470000303132333435363714
:10410C0038394142434445460000000030313233D7
:10411C0034353637383961626364656600000000F7
:10412C008C0000F0A20000F0620000F0620000F0D1
:10413C00620000F0620000F0A20000F0620000F0EB
:10414C00620000F0620000F0620000F0FA0100F082
:10415C00E00000F0CC0100F0620000F0620000F022
:10416C002A0200F0620000F0E00000F0620000F0B3
:08417C00620000F0D40100F024
:0400000520000000D7
:00000001FF
